:1000000003308A00A92B0000C4272027C824452AD2
:1000100020224F00D4224D283A10251832265510A0
:100020004300C3204E242021C127A028D52020270B
:10003000C824452A00012010201020102010201074
:10004000201020102010201000002C30840083137A
:100050000008031938280630F800F701F70B2E289E
:10006000F80B2D287B30F700F70B3428800B2B285A
:10007000080033183D2808123E2808168316081277
:100080008312B318452888124628881683168812CA
:10009000831233194D2808134E28081783160813A6
:1000A0008312B31955288813562888178316881386
:1000B000000083120915831609110230F700F70BAF
:1000C0005F28622800008312091183160911831228
:1000D0000800B4018316081600308312081A013094
:1000E000B4048316881600308312881A0130F70092
:1000F0000310F70D7708B404831608170030831235
:10010000081B0130F700F70DF70DFC30F7057708F5
:10011000B4048316881700308312881B0130F7005F
:10012000F70DF70DF70DF830F7057708B40434082C
:10013000F8000800831609110910891083120910AC
:100140008316091008168816081788178312891451
:100150008316891000008312091583160911000007
:10016000831269207808B300091183160911000071
:100170008312091583160911BD28BE2800008312B9
:1001800069207808B2000911831609110812881233
:10019000081388138312330EF700F030F705770841
:1001A0003204F8007808B200B21FD8288316A228BB
:1001B000B008031DDD280910DE2809148316091074
:1001C0000000831289108316891000008312091120
:1001D000831609118312310EB2000F30B2053208B6
:1001E000B300392031080F39B200B30039200800BC
:1001F0002830A3000C30A4000130A5000630A60072
:10020000091183160911831209108316091083122C
:10021000891083168910081288120813881309118F
:10022000091089100F308312AC0025200130A20084
:100230002208033C031C24290330B3003920053075
:10024000AC002520A20A18290230B300392005305D
:10025000AC002520A2012208033C031C3B292330CB
:100260002207840083130008A700B0012708B1000B
:100270009A20A20A2B298A110A12C62B2D0B41297A
:1002800044294030AE004529AE0101302C02AE07B2
:100290002E088038AF00B0012F08B1009A20080066
:1002A0002B08073A03195E290B3A03196329063A0A
:1002B00003196B29023A0319712976290130AC0020
:1002C000AD003E217B29B0010130B1009A200230FF
:1002D000AC0025207B290130AC000230AD003E216E
:1002E0007B29B0011030B1009A207B290130B00089
:1002F0002B08B1009A2008000B08A2008B1383166C
:1003000003178C170C140000000083120313A21BA8
:100310008B1703170C087F390319D0290313A20088
:1003200003170D080313A30003170F080313A400FA
:100330002208AB005021230803178D000313240863
:1003400003178F0003130B08A5008B1383160317E5
:100350008C170C140000000083120313A51B8B17CD
:1003600003170C0D0E0D7F390319D0290313A200BA
:1003700003170D080313A30003170F080313A400AA
:100380002208AB005021230803178D000313240813
:1003900003178F008D0A03198F0A03137C29031793
:1003A000031308000630AC000130AD003E210430DC
:1003B00003178D0000308F0003137C2108008E305E
:1003C000F7002508F8002408F900FA01F808031DD1
:1003D000F3297908F800F9010830F702F808031D3D
:1003E000F329F701FB290310F81BFA29F90DF80D81
:1003F000F703F329F8138A110A12F42B24080319BE
:10040000C32AB00028080319C32AB002031C0D2A0E
:100410007F30B0070318C32A132A8130B002031CAF
:10042000C32A0319C32A3008F700F801F901FA01B9
:10043000AF012508AE00AE172608AD002708AC00B6
:100440001930B0002B08AC020318362A0130AD0277
:100450000318362AAE020318362AAF020318362ACA
:10046000AF0AAE0AAD0A2B08AC07682A2A08AD020B
:100470000318512A0130AE020318512AAF020318A3
:10048000512AAF0AAE0A2A08AD072B08AC07031C95
:10049000682AAD0A031D682AAE0A031D682AAF0A3E
:1004A000682A29088038AE020318672A0130AF0293
:1004B0000318672AAF0A29088038AE072A08AD0753
:1004C000031C452AAE0A031D452AAF0A452A7A14A1
:1004D000B00B6B2A762A0310AC0DAD0DAE0DAF0D2F
:1004E0000310FA0DF90DF80DB10D222A311C7E2AE8
:1004F0000310F80CF90CFA0CB10C812AF70303195C
:10050000C32AB11BAA2A0310AC0DAD0DAE0DAF0D61
:100510002B08AC020318962A0130AD020318962A64
:10052000AE020318962AAF02031CB92A2A08AD02AC
:100530000318A12A0130AE020318A12AAF02031C3E
:10054000B92A29088038AE020318AA2A0130AF025E
:10055000031CB92AFA0A031DB92AF90A031DB92A8C
:10056000F80A031DB92AF70A0319C32AF80CF90C73
:10057000FA0C2508B0002908B006B01FC12AF817E8
:10058000C72AF813C72AF701F801F901FA018A11FD
:100590000A12052C8E30F7002208F7022308F90012
:1005A0002408F800F917F7080319E12A0310F908DD
:1005B000031DDD2AF8080319E12AF90CF80CF70BE2
:1005C000D62AA31FE82AF809F909F80A0319F90A33
:1005D0008A110A120E2C0B08A3008B138316031723
:1005E0008C170C140000000083120313A31B8B173D
:1005F0000318222B03170C087F390313A3000317DA
:100600000D080313A40003170F080313A500230804
:10061000AB005021240803178D000313250803178E
:100620008F0003130B08A6008B13831603178C1778
:100630000C140000000083120313A61B8B17A20BDF
:10064000222B412B03170C0D0E0D7F390313A30032
:1006500003170D080313A40003170F080313A500C5
:100660002308AB005021240803178D00031325082D
:1006700003178F008D0A03198F0A03100313A20BAF
:10068000EB2A8A110A12212CAA010408A9002A10B7
:10069000831B2A14230EF038A500A507E23EA6000E
:1006A000323EA80023080F39A607A607A807E93E8F
:1006B000A700A707A707220E0F39A707A807A70DAE
:1006C000A80DA809A80D22080F39A807A50D073005
:1006D000A4000A30A807A703031C6A2BA707A603D8
:1006E000031C6E2BA607A503031C722BA507A403EE
:1006F000031C762B2430840083130730290529132B
:10070000840728300402031929170008F700031D85
:10071000912B291B912B291AA32BA919912B20303E
:10072000942BA91529123030F707A3010408A20061
:100730002310831B23147708AB0050212208840068
:10074000831323188317840A291F812B8A110A1205
:10075000282C03081F398300831603170908C039A2
:10076000890003131F129F120030031788008312A1
:1007700087018801890183130030831603138800E1
:1007800009108910091189118312F828D2211F1329
:100790009F1383169F1783121F14831603170908CC
:1007A000C039890003131F129F12013003178800FC
:1007B0000030F800831203131F08C33978049F0028
:1007C0001830F700F70BE22BE52B9F149F18E62B50
:1007D0001E08FA0083161E088312A2001E08A3003A
:1007E000A5002208A400DF297A08A7007908A6003E
:1007F0007808A5007708A400AA30AB00F130AA0061
:100800000230A9008030A800FE297A08A5007908E6
:10081000A4007808A3007708A200CA2A7908A100DA
:100820007808A0000730AC000230AD003E210A304D
:1008300003178D0000308F00031006300313A20051
:10084000EB2A0B3084002108A3002008A200442BCF
:100850002030AB0050214330AB0050210F30AC00B2
:100860000230AD003E21DF30AB005021A108031D56
:100870003D2C2008233C0318642C0230AC000130CE
:10088000AD003E21113003178D0000308F0003139F
:100890007C210230A2009630AC002520A20B4B2C0C
:1008A0000230AC000130AD003E211B3003178D003B
:1008B00000308F0003137C210230A2009630AC0080
:1008C0002520A20B5E2C652CD22183160317D82B72
:0208D0006300C3
:04400E00E22FFF3F5F
:00000001FF
;PIC16F887
;CRC=A6BE  CREATED="07-Nov-23 22:21"
