:1000000001308A00C3290000D90159082B3C031C88
:100010004628FE30DE00D7015708073C031C442861
:100020008316880183125E088800203057078400F9
:1000300083130008E2000030E10083168701831279
:10004000620887000230E2006230840083130008F7
:10005000031937280630F800F701F70B2D28F80BA5
:100060002C287B30F700F70B3328800B2A28003030
:10007000E10083168701FF308312870003105E0DB5
:10008000013EDE00D70A0C28D90A05280800D7014E
:100090005708073C031C542820305707840083135B
:1000A000FF308000D70A4828D8015808063C031CB6
:1000B0008728DA015A08063C031C772820305A07A3
:1000C000F800FA010318FA0A7808E2007A08E30057
:1000D00028305A07840083130008E4006208840073
:1000E00083136318831764088000DA0A5A282830BB
:1000F0005A07840083130008A700DD015D08133C44
:10010000031C85280420DD0A7E28D80A55288A1178
:100110000A12392A6308F801620203189228620859
:10012000F7009E28F7010830E400E20DF70D6308A0
:1001300077020318F700F80DE40B95280800DC019E
:100140005C083B3C031CC4285C08E2000A30E30066
:100150008A2030307707840083130008A7005C08EA
:10016000E2000A30E3008A203030780784008313ED
:100170000008A600DD015D08133C031CC228042012
:10018000DD0ABB28DC0AA0288A110A123A2A620872
:1001900063068039E500E21FCF28E209E20AE31F87
:1001A000D328E309E30A6308F80162020318DB2895
:1001B0006208F700E728F7010830E400E20DF70DC8
:1001C000630877020318F700F80DE40BDE28E51F3B
:1001D000EB28F809F80A0800DF011A30E000D7011F
:1001E0005708073C031CFC28203057078400831362
:1001F000FF308000D70AF028D8015808143C031CAF
:1002000044296008E2000A30E300C7203030780754
:10021000840083130008A0006008E2000A30E300B5
:10022000C72030307707840083130008A1005F08DF
:10023000E2000A30E300C7203030780784008313DF
:100240000008A6005F08E2000A30E300C720303053
:100250007707840083130008A700DD015D08633C75
:10026000031C35290420DD0A2E29DF0ADF1B3C2967
:100270005F080F3C031CDF010230E002E01F42294F
:100280001A30E000D80AFD288A110A123B2AD70149
:100290005708073C031C5429203057078400831358
:1002A000FF308000D70A4829DA015A080D3C031CA8
:1002B0008229DB015B08073C031C782920305B079F
:1002C000F800FA010318FA0A7808E2007A08E30055
:1002D0005A085B073A3E840083130008E400620872
:1002E000840083136318831764088000DB0A5A298B
:1002F000DD015D08633C031C80290420DD0A7929A7
:10030000DA0A55298A110A123C2AD7015708073CF4
:10031000031C92292030570784008313FF3080008C
:10032000D70A8629DA015A080D3C031CC029DB01D3
:100330005B08073C031CB62920305B07F800FA0174
:100340000318FA0A7808E2007A08E3005A085B0703
:100350004F3E840083130008E40062088400831386
:100360006318831764088000DB0A9829DD015D08A3
:10037000633C031CBE290420DD0AB729DA0A93294D
:100380008A110A123D2A03081F398300FF30E10059
:10039000831603170908C039890003131F129F121F
:1003A00000300317880083128701880189018313B5
:1003B000FF300313A000A100A200A300A400A50029
:1003C000A600A700A430A800F930A900AA00923026
:1003D000AB00F930AC009930AD00C030AE008030D9
:1003E000AF00C030B000F930B100A430B200B0307E
:1003F000B3009930B4009230B5008230B600F830C6
:10040000B7008030B8009030B900FF30BA00BB00B0
:10041000BC00BD00BE00BF00C000C1008930C200EA
:100420008630C300C730C400C500C030C600FF30EE
:10043000C700C800C900CA00CB00CC00CD00CE0068
:10044000C630CF00C030D000C630D1008830D200D6
:10045000C630D300C030D400C730D5008830D600B5
:100460000030831687008312E10083168800831210
:0E04700047289F28EC2847298529382A630051
:04400E00E22CFF3F62
:00000001FF
;PIC16F887
;CRC=7BBF  CREATED="04-Oct-23 12:25"
