:1000000000308A00582800000A108A100A1182075E
:10001000C034F934A434B034993492348234F8348E
:10002000803490342608F801250203181A28250880
:10003000F7002628F7010830A700A50DF70D2608C0
:1000400077020318F700F80DA70B1D2808002408F5
:10005000A5000A30A600122078080420A500003070
:10006000A300831687018312250887002408A500B2
:100070000A30A600122077080420A5008316880104
:1000800083122508880008002430840083130008A8
:10009000031957280630F800F701F70B4D28F80B25
:1000A0004C287B30F700F70B5328800B4A280800B8
:1000B00003081F398300FF30A300831603170908C4
:1000C000C039890003131F129F12003003178800E4
:1000D000831287018801890183130030831603137B
:1000E00087008312A30083168800FF30860001304A
:1000F0009500811305308312A0002008A40027205A
:1001000083160614831206189B280A30A400442084
:1001100083160614831206189B288316061483126E
:10012000061C8D28A00AA01B9B2820080F3C031842
:100130009B280530A0008316861483128618B728E2
:100140000A30A40044208316861483128618B72828
:10015000831686148312861CA8280230A002A01BD6
:10016000B5282008043C031CB7280F30A0008316D4
:10017000061583120619DC280A30A40044208316D1
:10018000061583120619DC28831606158312061D30
:10019000C428A1012108803AF7002008803A77029C
:1001A0000319D4280318DC282108A4002720643070
:0C01B000A4004420A10ACA287D28630096
:04400E00E22FFF3F5F
:00000001FF
;PIC16F887
;CRC=FF27  CREATED="02-Oct-23 09:59"
