:1000000001308A00B42900000A108A100A11820700
:10001000C634C034C6348834C634C034C734883497
:100020005130840083130008031923280630F80098
:10003000F701F70B1928F80B18287B30F700F70B9E
:100040001F28800B16280800A430BC00F930BD0022
:10005000BE009230BF00F930C0009930C100C030FE
:10006000C2008030C300B6013608633C031C63281D
:10007000FE30B800B2013208073C031C6128831629
:1000800088018312380888003C30320784008313CB
:100090000008C4000030BB008316870183124408A7
:1000A00087000230D10010200030BB00831687018A
:1000B000FF30831287000310380D013EB800B20AEA
:1000C0003B28B60A34288A110A12F2293E08F801A0
:1000D0003D0203186E283D08F7007A28F701083022
:1000E000BF00BD0DF70D3E0877020318F700F80DAD
:1000F000BF0B71280800B30133082B3C031CAB284D
:10010000FE30B800B2013208073C031CA928831650
:100110008801831238088800203032078400831356
:100120000008D1000030BB008316870183125108FC
:1001300087000230D10010200030BB0083168701F9
:10014000FF30831287000310380D013EB800B20A59
:100150008328B30A7C280800BC013C083B3C031CF4
:10016000CA283C08BD000A30BE0066202830770748
:10017000840083130008A7003C08BD000A30BE00BD
:10018000662028307807840083130008A6007B20AF
:10019000BC0AAD288A110A12F3293E083F068039AD
:1001A000C100BE1FD528BE09BE0ABF1FD928BF097E
:1001B000BF0A3F08F8013E020318E1283E08F70095
:1001C000ED28F7010830C000BE0DF70D3F0877029B
:1001D0000318F700F80DC00BE428C11FF128F80937
:1001E000F80A0800BC011A30BD00B40134081D3CF7
:1001F000031C37293D08BE000A30BF00CD2028303F
:100200007807840083130008A0003D08BE000A3070
:10021000BF00CD2028307707840083130008A10099
:100220003C08BE000A30BF00CD202830780784008B
:1002300083130008A6003C08BE000A30BF00CD2092
:1002400028307707840083130008A7007B20013043
:10025000BC07BC1B2F293C080F3C031CBC0102300F
:10026000BD02BD1F35291A30BD00B40AF6288A1117
:100270000A12F429FF30BC00BD00BE00BF00C00060
:10028000C100C200C3008930C4008630C500C73039
:10029000C600C700C030C800FF30C900CA00CB008C
:1002A000CC00CD00CE00CF00D000B50135080D3C0C
:1002B000031C7C29B4013408073C031C7929203035
:1002C0003407F800FA010318FA0A7808D1007A080E
:1002D000D200350834073C3E840083130008D30065
:1002E0005108840083135218831753088000B40AFE
:1002F0005B297B20B50A56298A110A12F529B40117
:1003000034080F3C031CB129B6013608063C031C17
:10031000A32920303607F800FA010318FA0A7808F2
:10032000BC007A08BD0001303607203E84008313EC
:100330000008BE003C08840083133D1883173E0864
:100340008000B60A85293408073C031CAC29340810
:100350000420F800A700AE29FF30A7007B20B40AD4
:1003600080298A110A12F62903081F398300FF30F9
:10037000BB00831603170908C039890003131F1235
:100380009F120030031788008312870188018901BA
:100390008313FF300313A000A100BF30A200A3000D
:1003A000A400A500FF30A600A700C030A800F930C7
:1003B000A900A430AA00B030AB009930AC00923054
:1003C000AD008230AE00F830AF008030B000903029
:1003D000B1000030831687008312BB0083168800AB
:1003E00083122428AC28F2283A297F29F1296300B6
:04400E00E22FFF3F5F
:00000001FF
;PIC16F887
;CRC=4BB2  CREATED="09-Oct-23 20:51"
