:1000000002308A001D2A00002208A1002308A00057
:100010000030AC0083168701831220088700831606
:10002000880183122108880008002D308400831382
:100030000008031928280630F800F701F70B1E28DE
:10004000F80B1D287B30F700F70B2428800B1B28AA
:100050000800A301A2010420AB01AA01A701A60187
:10006000A708031D5E2826080F3C031C5E28A90173
:100070000130A8002708A5002608A400A508031D34
:10008000562824080F3C031C562828082A04A200DE
:1000900029082B04A30004204630AD0015200310CE
:1000A000A80DA90DA40A0319A50A3E282308AB0030
:1000B0002208AA00A60A0319A70A30288A110A12E0
:1000C000342AFF30A300A2000420FF30AB00FE3032
:1000D000AA00A701A601A708031DA92826080F3C0E
:1000E000031CA928A9010130A8002608F70003195C
:1000F0007E280310A80DA90DF70B7928A501A401EE
:1001000001302607F8002708FA000318FA0A250824
:100110007A02031CA228031D9128780824020318E0
:10012000A2280310A90CA80C28082A04A200290858
:100130002B04A30004204630AD001520A40A0319A7
:10014000A50A80280310AA0DAB0DA60A0319A70A59
:100150006B288A110A12352AA301A201A501A40164
:10016000A508031DD2282408073C031CD22803102D
:10017000210D013EA1000310200C803EA00083163B
:1001800088018312210888000030AC0083168701A3
:10019000831220088700C830AD001520A40A031977
:1001A000A50AB0280800A3010130A200A501A401FE
:1001B000A508031DF6282408073C031CF628031095
:1001C000A10D0310A00C831688018312210888005A
:1001D0000030AC0083168701831220088700963018
:1001E000AD001520A40A0319A50AD8288A110A12FD
:1001F000372AA3010130A200A501A401A508031D0F
:100200001C292408073C031C1C290310A10C031003
:10021000A00D831688018312210888000030AC00ED
:10022000831687018312200887009630AD001520C1
:10023000A40A0319A50AFE288A110A12392AA30161
:10024000A201A501A401A508031D45292408073C16
:10025000031C45290310210C803EA1000310200D32
:10026000013EA00083168801831221088800003017
:10027000AC00831687018312200887009630AD00FA
:100280001520A40A0319A50A23298A110A123B2A58
:10029000A501A401A508031D63292408013C031C32
:1002A0006329AA30A300A2000420C830AD001520A5
:1002B0005530A300A2000420C830AD001520A40AC8
:1002C0000319A50A4A298A110A123C2AA301A2018C
:1002D000A501A401A508031D912924080F3C031CB6
:1002E00091290310220DAD00230DAE0001302D0722
:1002F000A2002E08A3000318A30A83168801831204
:1003000022088800AE010030AC00831687018312FA
:10031000230887006430AD001520A40A0319A50A3C
:100320006A298A110A123D2AA501A401A508031D04
:10033000B42924080F3C031CB4290310A20DA30DFB
:1003400083168801831222088800AE010030AC00B9
:10035000831687018312230887006430AD001520BF
:10036000A40A0319A50A96298A110A123E2AA30192
:10037000A201A501A401A508031DDF2924080F3C43
:10038000031CDF290310230CAE00220CAD00A200D9
:1003900080302E07A300831688018312220888006C
:1003A000AE010030AC00831687018312230887005A
:1003B0006430AD001520A40A0319A50ABB298A11CF
:1003C0000A123F2AA501A401A508031D022A240838
:1003D0000F3C031C022A0310A30CA20C83168801F5
:1003E000831222088800AE010030AC00831687011A
:1003F0008312230887006430AD001520A40A031976
:10040000A50AE4298A110A12402AA301A201A50122
:10041000A401A508031D1A2A2408093C031C1A2A52
:1004200004206430AD001520A209A309A40A031911
:10043000A50A092A8A110A12412A03081F398300D2
:10044000FF30AC00831603170908C0398900031375
:100450001F129F1200300317880083128701880142
:1004600089018313031329286128AC20D328AC20E9
:10047000F928AC201F29482966299429B729E2299F
:06048000052A332A630087
:04400E00E22FFF3F5F
:00000001FF
;PIC16F887
;CRC=B25D  CREATED="25-Nov-23 11:04"
