:1000000000308A00EF2800000A108A100A118207C7
:10001000C034F934A434B034993492348234F8348E
:1000200080349034F801F901F701FA012908031D21
:100030001C282808031936281030AA000310A60D22
:10004000A70DF70DFA0D29087A02031D29282808A3
:100050007702031C32282808F702031CFA03290838
:10006000FA020314F80DF90DAA0B1E280800230844
:10007000A7002208A600A9010A30A80012207908CA
:10008000A7007808A6007908FA0078080420A800DC
:10009000831686018312280886002308A7002208F9
:1000A000A600A9010A30A80012207708A6007A0845
:1000B000A700FA0077080420A8008316880183129D
:1000C00028088800080026308400831300080319DC
:1000D00076280630F800F701F70B6C28F80B6B2830
:1000E0007B30F700F70B7228800B69280800831615
:1000F00005148312051897281430A6006320831670
:100100000514831205189728831605148312051CFD
:100110008428A20A0319A30AA308031D932822080E
:100120000A3C03189628A3010A30A20037208A113E
:100130000A124F298316851483128518B8281430A3
:10014000A60063208316851483128518B8288316A9
:1001500085148312851CA72822080319A303A20B68
:10016000B728A308031DB728A3010130A200372038
:100170008A110A1250298316051583120519D528EC
:100180001430A60063208316051583120519D5289F
:10019000831605158312051DC8280130A406241CEA
:1001A000D3282414D428241037208A110A12512964
:1001B0001030AA00F701FA01A70CA60C031CE628D0
:1001C0002808F7070318FA0A2908FA07FA0CF70CA7
:1001D000F90CF80CAA0BDC288A110A125929030819
:1001E0001F398300FF30A500831603170908C039A3
:1001F000890003131F129F12003003178800831217
:100200008701880189018313FF308316031385005A
:100210000030860087008312A500831688008312B1
:10022000A51125088316870083128711251125083B
:1002300083168700831207110C30970083169B01E9
:100240009C0101309D000030F800063883129200B6
:10025000F9308316920083129101A51325088316A5
:10026000870083128717A101A0012410A301A20116
:100270002108F9002008F800F90CF80CF90CF80C2A
:10028000F90C78089500F90C790C3039F70017084B
:10029000CF39770497003720241C502977289A28D3
:1002A000BB282308A7002208A600A9016430A800E3
:1002B000D8287908A1007808A0002108F9002008B2
:1002C000F800F90CF80CF90CF80CF90C780895000A
:1002D000F90C790C3039F7001708CF3977049700FB
:0402E0004C29630042
:04400E00E22FFF3F5F
:00000001FF
;PIC16F887
;CRC=EAE0  CREATED="08-Nov-23 11:52"
