:1000000000308A006C2800000A108A100A1182074A
:10001000C034F934A434B034993492348234F8348E
:10002000803490342E08F8012D0203181A282D0868
:10003000F7002628F7010830AF00AD0DF70D2E08A8
:1000400077020318F700F80DAF0B1D280800AE016A
:100050002E081D3C031C6928FE30A800AD012D08A8
:10006000073C031C67288316880183122808880030
:1000700020302D07840083130008AF000030AC004F
:100080008316870183122F0887000430AF002F30BA
:1000900084008313000803195A280630F800F7017A
:1000A000F70B5028F80B4F287B30F700F70B56283A
:1000B000800B4D280030AC0083168701FF3083127F
:1000C00087000310280D013EA800AD0A2F28AE0AB4
:1000D00028288A110A12B22803081F398300FF302A
:1000E000AC0083161F149F141F159F118313FF303C
:1000F0008312A000A100BF30A200FF30A300A40023
:10010000BF30A500FF30A600A7000030831687008F
:100110008312AC00831688008312AB01AA01A901E7
:10012000A9012908173C031CB828AA012A083B3C4E
:10013000031CB628AB012B083B3C031CB4282B083E
:10014000AD000A30AE00122077080420F800A700A6
:100150002B08AD000A30AE00122078080420F80009
:10016000A6002728AB0A9B28AA0A9628A90A912844
:040170009028630070
:02400E00323F3F
:00000001FF
;PIC16F877
;CRC=F05F  CREATED="02-Oct-23 11:00"
