:1000000001308A00C7290000FF00030E8301A10010
:100010000A08A0008A010408A2007708A300780853
:10002000A4007908A5007A08A600831383128C30F7
:100030008400001C1D280C182E2822088400230888
:10004000F7002408F8002508F9002608FA0020081F
:100050008A00210E8300FF0E7F0E09008A110A120A
:100060003F280A108A100A118207C034F934A434D8
:10007000B034993492348234F834803490348E0120
:10008000EC308F0078308E00FE30C100C001400897
:10009000073C031C7E2883168801831241088800D0
:1000A00029304007840083130008C2000030B100EB
:1000B000831687018312420887000230C200953000
:1000C000C3000330C302031C6F2843308400831332
:1000D000000803196F286D286D28800B6C28C20B4F
:1000E0005F280030B10083168701FF30831287003C
:1000F0000310410D013EC100C00A47280C108A11AF
:100100000A121D2833308400831300080319952830
:100110000630F800F701F70B8B28F80B8A287B30A4
:10012000F700F70B9128800B882808008E30F70025
:100130003308F8003208F900FA01F808031DAA286C
:100140007908F800F9010830F702F808031DAA2819
:10015000F701B2280310F81BB128F90DF80DF703C9
:10016000AA28F8138A110A12242A320803197A29B4
:10017000BE00360803197A29BE02031CC4287F304A
:10018000BE0703187A29CA288130BE02031C7A29C7
:1001900003197A293E08F700F801F901FA01BD01B7
:1001A0003308BC00BC173408BB003508BA0019304E
:1001B000BE003908BA020318ED280130BB0203184B
:1001C000ED28BC020318ED28BD020318ED28BD0A76
:1001D000BC0ABB0A3908BA071F293808BB02031832
:1001E00008290130BC0203180829BD020318082998
:1001F000BD0ABC0A3808BB073908BA07031C1F2907
:10020000BB0A031D1F29BC0A031D1F29BD0A1F2984
:1002100037088038BC0203181E290130BD020318BC
:100220001E29BD0A37088038BC073808BB07031CE5
:10023000FC28BC0A031DFC28BD0AFC287A14BE0B4E
:1002400022292D290310BA0DBB0DBC0DBD0D0310C5
:10025000FA0DF90DF80DBF0DD9283F1C35290310F3
:10026000F80CF90CFA0CBF0C3829F70303197A299A
:10027000BF1B61290310BA0DBB0DBC0DBD0D3908A4
:10028000BA0203184D290130BB0203184D29BC02E4
:1002900003184D29BD02031C70293808BB0203183E
:1002A00058290130BC0203185829BD02031C7029CB
:1002B00037088038BC02031861290130BD02031CD5
:1002C0007029FA0A031D7029F90A031D7029F80A1A
:1002D000031D7029F70A03197A29F80CF90CFA0C96
:1002E0003308BE003708BE06BE1F7829F8177E29DE
:1002F000F8137E29F701F801F901FA018A110A12AF
:10030000352A8E30F7003208F7023308F900340836
:10031000F800F917F708031998290310F908031DC5
:100320009429F80803199829F90CF80CF70B8D2972
:10033000B31F9F29F809F909F80A0319F90A8A1164
:100340000A123E2AF801F901F701FA013508031DE6
:10035000AC2934080319C6291030B6000310B20DB9
:10036000B30DF70DFA0D35087A02031DB9293408CB
:100370007702031CC2293408F702031CFA0335086C
:10038000FA020314F80DF90DB60BAE2908000308A4
:100390001F398300FF30B100831603170908C039E5
:1003A000890003131F129F12003003178800831265
:1003B0008701880189018313FF300313A900AA0074
:1003C000AB00AC00AD00AE009C30AF00C630B0005A
:1003D00000308316880087008312B100C0308B0480
:1003E00083160C143530831290008E01EC308F0090
:1003F00078308E001F179F1783169F1783121F14C4
:10040000831603170908C039890003131F129F12AE
:100410002030031788001430F800831203131F08DC
:10042000C33978049F000A30B30082209F149F18BC
:10043000172A83161E088312A7001E08A800280882
:10044000B3002708B20096287A08B5007908B400EE
:100450007808B3007708B200AA30B900F130B800CC
:100460000230B7008030B600B5287A08B5007908A8
:10047000B4007808B3007708B20081297908A80091
:100480007808A7002808B3002708B200B5010A3091
:10049000B400A2217908B3007808B2007908FA0004
:1004A00078083120F800AD002808B3002708B20012
:1004B000B5010A30B400A2217708B2007A08B3006F
:1004C000FA0077083120F800AE000430B200FA30AC
:0C04D000B3008220B20B672A162A6300DA
:04400E00E22FFF3F5F
:00000001FF
;PIC16F887
;CRC=0F49  CREATED="12-Nov-23 12:01"
