:1000000002308A00082A00002021C1272027C727A4
:100010004310C420CE23A025C8274110000028305B
:10002000840083130008031922280630F800F70122
:10003000F70B1828F80B17287B30F700F70B1E2852
:10004000800B152808002E182728081228280816C3
:10005000831608128312AE182F28881230288816AB
:100060008316881283122E19372808133828081788
:10007000831608138312AE193F2888134028881767
:1000800083168813000083120915831609110230A4
:10009000F700F70B49284C2800008312091183163A
:1000A000091183120800AF0183160816003083126D
:1000B000081A0130AF048316881600308312881A9C
:1000C0000130F7000310F70D7708AF048316081707
:1000D00000308312081B0130F700F70DF70DFC30DC
:1000E000F7057708AF048316881700308312881B42
:1000F0000130F700F70DF70DF70DF830F705770829
:10010000AF042F08F80008008316091109108910A0
:100110008312091083160910081688160817881705
:10012000831289148316891000008312091583161F
:1001300009110000831253207808AE0009118316BC
:10014000091100008312091583160911A728A82890
:100150000000831253207808AD000911831609119D
:10016000081288120813881383122E0EF700F0303D
:10017000F70577082D04F8007808AD00AD1FC228F8
:1001800083168C28AB08031DC7280910C82809143A
:10019000831609100000831289108316891000004D
:1001A000831209118316091183122C0EAD000F3032
:1001B000AD052D08AE0023202C080F39AD00AE0090
:1001C000232008002830A4000C30A5000130A60030
:1001D0000630A7000911831609118312091083162E
:1001E00009108312891083168910081288120813C7
:1001F00088130911091089100F308312A8000F20ED
:100200000130A3002308033C031C0E290330AE0079
:1002100023200530A8000F20A30A02290230AE00D7
:1002200023200530A8000F20A3012308033C031C52
:10023000252924302307840083130008A800AB017C
:100240002808AC008420A30A15298A110A12252A3D
:10025000280B2B292E294030A9002F29A901013074
:100260002702A90729088038AA00AB012A08AC0098
:10027000842008002608073A031948290B3A031975
:100280004D29063A03195529023A03195B296029B9
:100290000130A700A80028216529AB010130AC007E
:1002A00084200230A8000F2065290130A700023009
:1002B000A80028216529AB011030AC0084206529F5
:1002C0000130AB002608AC00842008000B08A30016
:1002D0008B13831603178C170C1400000000831275
:1002E0000313A31B8B1703170C087F390319BA29B3
:1002F0000313A30003170D080313A40003170F082B
:100300000313A5002308A6003A21240803178D0033
:100310000313250803178F0003130B08A6008B1384
:10032000831603178C170C140000000083120313AC
:10033000A61B8B1703170C0D0E0D7F390319BA2955
:100340000313A30003170D080313A40003170F08DA
:100350000313A5002308A6003A21240803178D00E3
:100360000313250803178F008D0A03198F0A03133F
:100370006629031703138A110A12302A2608F80186
:1003800025020318C6292508F700D229F7010830ED
:10039000A700A50DF70D260877020318F700F80D42
:1003A000A70BC929080078082308A5006430A60017
:1003B000BE217708A30078083030031DE629A41C6D
:1003C000ED29A419ED29241A2030E929A4112412B9
:1003D0002414F8077808A6003A212308A5000A305B
:1003E000A600BE217708A30078083030031DFE293F
:1003F000A419022A241C022A241A2030F80778089B
:10040000A6003A213030A3072308A6003A210800AD
:1004100003081F398300831603170908C0398900B0
:1004200003131F129F1200300317880083128701E5
:100430008801890183138316031309108910091198
:100440008911003088008312E2280130A700A8003B
:100450002821043003178D0000308F000313662914
:10046000A0012008173C031C6B2AA10121083B3C7A
:10047000031C692AA20122083B3C031C672A0630A0
:10048000A7000230A80028212008A3000130A40002
:10049000D3216830A6003A212030A6003A21210855
:1004A000A3000130A400D3216D30A6003A212030F2
:1004B000A6003A212208A3000130A400D321733002
:1004C000A6003A213230A8000F20A20A3B2AA10A36
:0804D000362AA00A312A63005C
:04400E00E22FFF3F5F
:00000001FF
;PIC16F887
;CRC=DB7A  CREATED="14-Oct-23 21:14"
