:1000000002308A009E2A0000D3204E105024C126C0
:100010003A102518B22A0000D3204E105024C126D1
:10002000A026412C3A1025195500C4202022551035
:10003000D3204E105024C126000020102010201084
:10004000201020102010201000002730840083137F
:100050000008031938280630F800F701F70B2E289E
:10006000F80B2D287B30F700F70B3428800B2B285A
:1000700008002E183D2808123E280816831608127C
:100080008312AE18452888124628881683168812CF
:1000900083122E194D2808134E28081783160813AB
:1000A0008312AE195528881356288817831688138B
:1000B000000083120915831609110230F700F70BAF
:1000C0005F28622800008312091183160911831228
:1000D0000800AF018316081600308312081A013099
:1000E000AF048316881600308312881A0130F70097
:1000F0000310F70D7708AF0483160817003083123A
:10010000081B0130F700F70DF70DFC30F7057708F5
:10011000AF048316881700308312881B0130F70064
:10012000F70DF70DF70DF830F7057708AF042F0836
:10013000F8000800831609110910891083120910AC
:100140008316091008168816081788178312891451
:100150008316891000008312091583160911000007
:10016000831269207808AE00091183160911000076
:100170008312091583160911BD28BE2800008312B9
:1001800069207808AD000911831609110812881238
:100190000813881383122E0EF700F030F705770846
:1001A0002D04F8007808AD00AD1FD8288316A228CA
:1001B000AB08031DDD280910DE2809148316091079
:1001C0000000831289108316891000008312091120
:1001D0008316091183122C0EAD000F30AD052D08CA
:1001E000AE0039202C080F39AD00AE0039200800D0
:1001F0002830A3000C30A4000130A5000630A60072
:10020000091183160911831209108316091083122C
:10021000891083168910081288120813881309118F
:10022000091089100F308312A70025200130A20089
:100230002208033C031C24290330AE00392005307A
:10024000A7002520A20A18290230AE003920053067
:10025000A7002520A2012208033C031C3B292330D0
:100260002207840083130008A700AB012708AC0015
:100270009A20A20A2B298A110A12BB2A280B41298B
:1002800044294030A9004529A90101302702A907C6
:1002900029088038AA00AB012A08AC009A2008007F
:1002A0002608073A03195E290B3A03196329063A0F
:1002B00003196B29023A0319712976290130A70025
:1002C000A8003E217B29AB010130AC009A2002300E
:1002D000A70025207B290130A7000230A8003E217D
:1002E0007B29AB011030AC009A207B290130AB0098
:1002F0002608AC009A2008000B08A3008B13831675
:1003000003178C170C140000000083120313A31BA7
:100310008B170318B32903170C087F390313A300A5
:1003200003170D080313A40003170F080313A500F8
:100330002308A6005021240803178D000313250865
:1003400003178F0003130B08A6008B1383160317E4
:100350008C170C140000000083120313A61B8B17CC
:10036000A20BB329D22903170C0D0E0D7F390313ED
:10037000A30003170D080313A40003170F080313AA
:10038000A5002308A6005021240803178D0003139D
:10039000250803178F008D0A03198F0A0310031312
:1003A000A20B7C2908002508F80124020318DB2988
:1003B0002408F700E729F7010830A600A40DF70D7F
:1003C000250877020318F700F80DA60BDE290800B0
:1003D00078082208A4006430A500D3217708A20081
:1003E00078083030031DFB29A31C022AA319022A16
:1003F000231A2030FE29A31123122314F8077808AA
:10040000A60050212208A4000A30A500D3217708B5
:10041000A20078083030031D132AA319172A231CC1
:10042000172A231A2030F8077808A6005021303008
:10043000A2072208A600502108000130A700A8004A
:100440003E210C3003178D0000308F0003100E305A
:100450000313A2007C212108A2001130A300E8218F
:1004600008000130A7000230A8003E210430031725
:100470008D0000308F0003100A300313A2007C218E
:100480002008A2000130A300E8218A110A12C82A1C
:100490000B08A2008B13831603178C170C14000093
:1004A000000083120313A21B8B1703170C087F395C
:1004B00003199C2A0313A20003170D080313A300BA
:1004C00003170F080313A4002208A60050212308D5
:1004D00003178D000313240803178F0003130B0861
:1004E000A5008B13831603178C170C140000000053
:1004F00083120313A51B8B1703170C0D0E0D7F39E9
:1005000003199C2A0313A20003170D080313A30069
:1005100003170F080313A4002208A6005021230884
:1005200003178D000313240803178F008D0A031986
:100530008F0A0313482A03170313080003081F39FF
:100540008300831603170908C039890003131F129B
:100550009F120030031788008312870188018901E8
:1005600083130030831603138800091089100911C2
:1005700089118312F8280F30A1001D22831601086B
:10058000C73928388100831281010108A000312A6F
:100590008316061483120618DE2A0530A7002520CC
:1005A0008316061483120618DA2A83160614831299
:1005B000061CD52A2108133C0318A10A83168614A9
:1005C00083128618F42A0530A70025208316861486
:1005D00083128618F02A831686148312861CEB2A4F
:1005E00021080A3C031CA1031D2221082002031D2F
:1005F000202B0130A7000230A8003E211530031740
:100600008D0000308F00031348220230A200963084
:10061000A7002520A20B072B0130A7000230A8005D
:100620003E211D3003178D0000308F000313482238
:100630000230A2009630A7002520A20B1A2BF92A1F
:04064000C52A630064
:04400E00E22FFF3F5F
:00000001FF
;PIC16F887
;CRC=49CE  CREATED="03-Nov-23 20:42"
