:1000000001308A00852900000A108A100A1182072F
:10001000C034F934A434B034993492348234F8348E
:100020008034903424308400831300080319252879
:100030000630F800F701F70B1B28F80B1A287B3065
:10004000F700F70B2128800B182808008E30F700E6
:100050002608F8002508F900FA01F808031D3A28D7
:100060007908F800F9010830F702F808031D3A286A
:10007000F70142280310F81B4128F90DF80DF7038A
:100080003A28F8138A110A12D829250803190A29CF
:10009000B100290803190A29B102031C54287F3032
:1000A000B10703180A295A288130B102031C0A2912
:1000B00003190A293108F700F801F901FA01B00122
:1000C0002608AF00AF172708AE002808AD0019308A
:1000D000B1002C08AD0203187D280130AE020318D0
:1000E0007D28AF0203187D28B00203187D28B00ACE
:1000F000AF0AAE0A2C08AD07AF282B08AE020318D2
:1001000098280130AF0203189828B00203189828E5
:10011000B00AAF0A2B08AE072C08AD07031CAF28A6
:10012000AE0A031DAF28AF0A031DAF28B00AAF28DF
:100130002A088038AF020318AE280130B002031835
:10014000AE28B00A2A088038AF072B08AE07031C78
:100150008C28AF0A031D8C28B00A8C287A14B10BA6
:10016000B228BD280310AD0DAE0DAF0DB00D0310BC
:10017000FA0DF90DF80DB20D6928321CC5280310CF
:10018000F80CF90CFA0CB20CC828F70303190A2969
:10019000B21BF1280310AD0DAE0DAF0DB00D2C0844
:1001A000AD020318DD280130AE020318DD28AF02CE
:1001B0000318DD28B002031C00292B08AE02031827
:1001C000E8280130AF020318E828B002031C002918
:1001D0002A088038AF020318F1280130B002031C4E
:1001E0000029FA0A031D0029F90A031D0029F80A4B
:1001F000031D0029F70A03190A29F80CF90CFA0C57
:100200002608B1002A08B106B11F0829F8170E29DF
:10021000F8130E29F701F801F901FA018A110A12FF
:10022000E9298E30F7002308F7022408F900250891
:10023000F800F917F708031928290310F908031D16
:100240002429F80803192829F90CF80CF70B1D29A3
:10025000A41F2F29F809F909F80A0319F90A8A11C4
:100260000A12F229F801F901F701FA012608031D23
:100270003C292508031956291030A7000310A30DA7
:10028000A40DF70DFA0D26087A02031D4929250849
:100290007702031C52292508F702031CFA032608DB
:1002A000FA020314F80DF90DA70B3E2908002108E6
:1002B000A4002008A300A6010A30A5003221790875
:1002C000A4007808A3007908FA0078080420A500A3
:1002D000831686018312250886002108A4002008C1
:1002E000A300A6010A30A50032217708A3007A08EE
:1002F000A400FA0077080420A50083168801831261
:10030000250888008A110A12F92903081F39830079
:1003100083160317871508300313990002309A00DB
:10032000A6309800903083129800831603170908AE
:10033000C039890003131F129F1200300317880071
:100340008312870188018901831300308316031308
:1003500086008800FF30850083121F139F138316C9
:100360009F1783121F14831603170908C0398900C9
:1003700003131F129F120130031788000030F8008A
:10038000831203131F08C33978049F000A30A400A6
:1003900012209F149F18CA291E08FA0083161E08EF
:1003A0008312A3001E08A400A6002308A500262887
:1003B0007A08A8007908A7007808A6007708A500A1
:1003C000AA30AC00F130AB000230AA008030A900A6
:1003D00045287A08A6007908A5007808A4007708BF
:1003E000A30011297908A1007808A0002008A20024
:1003F000572922080C1EFA2999000430A300FA306C
:10040000A4001220A30BFF2983160317BE29630043
:04400E00E22FFF3F5F
:00000001FF
;PIC16F887
;CRC=868F  CREATED="14-Nov-23 23:59"
