:1000000003308A00EE2B0000FF00030E8301A100E5
:100010000A08A0008A010408A2007708A300780853
:10002000A4007908A5007A08A60003170D08031399
:10003000A70003170F080313A80003170C080313E6
:10004000A90003170E080313AA00831383128C3030
:100050008400801E2D288C1A4E2822088400230834
:10006000F7002408F8002508F9002608FA002708F8
:1000700003178D000313280803178F0003132908A3
:1000800003178C0003132A0803178E00031320089C
:100090008A00210E8300FF0E7F0E09008A110A12CA
:1000A0008F294C185528081256280816831608124E
:1000B0008312CC185D2888125E2888168316881251
:1000C00083124C196528081366280817831608132D
:1000D0008312CC196D2888136E288817831688130D
:1000E000000083120915831609110230F700F70B7F
:1000F00077287A28000083120911831609118312C8
:10010000080083160911091089108312091083163B
:100110000910081688160817881783128914831681
:10012000891000008312091583160911000083123B
:10013000CD018316081600308312081A0130CD0451
:100140008316881600308312881A0130F7000310D6
:10015000F70D7708CD048316081700308312081BAB
:100160000130F700F70DF70DFC30F7057708CD04E7
:100170008316881700308312881B0130F700F70DB3
:10018000F70DF70DF830F7057708CD044D08F800A6
:100190007808CC0009118316091100008312091593
:1001A00083160911D328D42800008312CD018316A9
:1001B000081600308312081A0130CD048316881601
:1001C00000308312881A0130F7000310F70D77080A
:1001D000CD048316081700308312081B0130F70086
:1001E000F70DF70DFC30F7057708CD048316881757
:1001F00000308312881B0130F700F70DF70DF70D63
:10020000F830F7057708CD044D08F8007808CB00E2
:100210000911831609110812881208138813831212
:100220004C0EF700F030F70577084B04F80078081B
:10023000CB00CB1F1D2983168928C908031D22293D
:10024000091023290914831609100000831289104C
:100250008316891000008312091183160911831275
:100260004A0ECB000F30CB054B08CC0051204A087A
:100270000F39CB00CC0051200800460B4029432900
:100280004030C7004429C70101304502C70747086D
:100290008038C800C9014808CA00812008004530DC
:1002A000840083130008031962290630F800F7015F
:1002B000F70B5829F80B57297B30F700F70B5E290D
:1002C000800B552908004408073A031971290B3A95
:1002D00003197629063A03197E29023A031984295B
:1002E00089290130C500C6003D218E29C901013090
:1002F000CA0081200230C5004F218E290130C5007F
:100300000230C6003D218E29C9011030CA0081206B
:100310008E290130C9004408CA00812008008C1EC3
:100320008F291A08AC000130C5000230C6003D21FB
:100330006A3003178D0002308F000310083003135A
:10034000C0000B08C1008B13831603178C170C1405
:100350000000000083120313C11B8B170318D82958
:1003600003170C087F390313C10003170D0803138B
:10037000C20003170F080313C3004108C400632120
:10038000420803178D000313430803178F0003135C
:100390000B08C4008B13831603178C170C14000072
:1003A000000083120313C41B8B17C00BD829F72935
:1003B00003170C0D0E0D7F390313C10003170D0831
:1003C0000313C20003170F080313C3004108C4003E
:1003D0006321420803178D000313430803178F009E
:1003E0008D0A03198F0A03100313C00BA1292C08CF
:1003F000C0001130C10078084008C2006430C3005A
:100400004308F80142020318082A4208F700142A98
:10041000F7010830C400C20DF70D43087702031836
:10042000F700F80DC40B0B2A7708C00078083030AD
:10043000031D212AC11C282AC119282A411A20304B
:10044000242AC11141124114F8077808C40063211D
:100450004008C2000A30C3004308F80142020318F2
:10046000342A4208F700402AF7010830C400C20DC0
:10047000F70D430877020318F700F80DC40B372A6D
:100480007708C00078083030031D4C2AC119502A63
:10049000411C502A411A2030F8077808C400632113
:1004A0003030C0074008C40063212030C4006321FD
:1004B0004330C40063210B30C5000230C6003D212B
:1004C000DF30C40063210A30C5004F218C128A112D
:1004D0000A122D28D4224D2831103A102519551012
:1004E0004300D4224D2832103A10251955104300EC
:1004F0002830B1000C30B2000130B3000630B40037
:100500000911831609118312091083160910831229
:10051000891083168910081288120813881309118C
:10052000091089108312AB018B1BAB178B130F3093
:10053000C5004F21AB1B8B170130B0003008033CC6
:10054000031CB62AAB018B1BAB178B130330CC00FB
:100550005120AB1B8B17AB018B1BAB178B130530DB
:10056000C5004F21AB1B8B17B00A9E2AAB018B1B1A
:10057000AB178B130230CC005120AB1B8B17AB0198
:100580008B1BAB178B130530C5004F21AB1B8B1793
:10059000B0013008033C031CDF2A313030078400EF
:1005A00083130008B500AB018B1BAB178B13C9017C
:1005B0003508CA008120AB1B8B17B00AC92A8A11E3
:1005C0000A121A2C8E30F7003308F8003208F900AE
:1005D000FA01F808031DF62A7908F800F901083035
:1005E000F702F808031DF62AF701FE2A0310F81B8C
:1005F000FD2AF90DF80DF703F62AF8138A110A12ED
:100600005F2C32080319C62BBE0036080319C62B0F
:10061000BE02031C102B7F30BE070318C62B162BFF
:100620008130BE02031CC62B0319C62B3E08F700FF
:10063000F801F901FA01BD013308BC00BC17340808
:10064000BB003508BA001930BE003908BA020318D9
:10065000392B0130BB020318392BBC020318392B8C
:10066000BD020318392BBD0ABC0ABB0A3908BA07F8
:100670006B2B3808BB020318542B0130BC02031843
:10068000542BBD020318542BBD0ABC0A3808BB0703
:100690003908BA07031C6B2BBB0A031D6B2BBC0A62
:1006A000031D6B2BBD0A6B2B37088038BC02031867
:1006B0006A2B0130BD0203186A2BBD0A3708803847
:1006C000BC073808BB07031C482BBC0A031D482B7A
:1006D000BD0A482B7A14BE0B6E2B792B0310BA0D72
:1006E000BB0DBC0DBD0D0310FA0DF90DF80DBF0DBE
:1006F000252B3F1C812B0310F80CF90CFA0CBF0CB6
:10070000842BF7030319C62BBF1BAD2B0310BA0DA7
:10071000BB0DBC0DBD0D3908BA020318992B013071
:10072000BB020318992BBC020318992BBD02031CB2
:10073000BC2B3808BB020318A42B0130BC020318E1
:10074000A42BBD02031CBC2B37088038BC02031845
:10075000AD2B0130BD02031CBC2BFA0A031DBC2BC0
:10076000F90A031DBC2BF80A031DBC2BF70A031959
:10077000C62BF80CF90CFA0C3308BE003708BE067D
:10078000BE1FC42BF817CA2BF813CA2BF701F801A8
:10079000F901FA018A110A12702C8E30F700300824
:1007A000F7023108F9003208F800F917F7080319C1
:1007B000E42B0310F908031DE02BF8080319E42BC0
:1007C000F90CF80CF70BD92BB11FEB2BF809F90931
:1007D000F80A0319F90A8A110A12792C03081F3939
:1007E000830083160317871508300313990002301E
:1007F0009A00A63098009030831298008316031751
:100800000908C039890003131F129F120030031713
:1008100088008312870188018901831300308316C1
:10082000031388000910891009118911FF30850010
:100830008312782AC0308B0483168C1683121F1300
:100840009F1383169F1783121F148316031709081B
:10085000C039890003131F129F120130031788004B
:100860000030F800831203131F08C33978049F0077
:10087000AB018B1BAB178B130A30C5004F21AB1B91
:100880008B170030F8001F08C33978049F00AB01B4
:100890008B1BAB178B130A30C5004F21AB1B8B177B
:1008A0009F149F18512C1E08FA0083161E088312ED
:1008B000B0001E08B100B3003008B200E22A7A0886
:1008C000B5007908B4007808B3007708B200AA3000
:1008D000B900F130B8000230B7008030B600012B0B
:1008E0007A08B3007908B2007808B1007708B00040
:1008F000CD2B7908AE007808AD002D08AF00AB0114
:100900008B1BAB178B130130C500C6003D21AB1B01
:100910008B17713003178D0002308F0003100830E1
:100920000313C0000B08C1008B13831603178C1729
:100930000C140000000083120313C11B8B17031853
:10094000C92C03170C087F390313C10003170D08C6
:100950000313C20003170F080313C3004108C400A8
:100960006321420803178D000313430803178F0008
:1009700003130B08C4008B13831603178C170C1476
:100980000000000083120313C41B8B17C00BC92C7B
:10099000E82C03170C0D0E0D7F390313C10003174C
:1009A0000D080313C20003170F080313C300410807
:1009B000C4006321420803178D0003134308031783
:1009C0008F008D0A03198F0A03100313C00B922C9A
:1009D0002F08C0001130C10078084008C200643000
:1009E000C3004308F80142020318F92C4208F7003B
:1009F000052DF7010830C400C20DF70D430877023A
:100A00000318F700F80DC40BFC2C7708C000780819
:100A10003030031D122DC11C192DC119192D411A79
:100A20002030152DC11141124114F8077808C40077
:100A300063214008C2000A30C3004308F8014202A3
:100A40000318252D4208F700312DF7010830C400A6
:100A5000C20DF70D430877020318F700F80DC40B19
:100A6000282D7708C00078083030031D3D2DC119AE
:100A7000412D411C412D411A2030F8077808C4004F
:100A800063213030C0074008C4006321AB018B1BD9
:100A9000AB178B132030C4006321AB1B8B17AB014A
:100AA0008B1BAB178B134330C4006321AB1B8B171D
:100AB000AB018B1BAB178B130B30C5000130C6008D
:100AC0003D21AB1B8B17AB018B1BAB178B13DF309F
:100AD000C4006321AB1B8B17AB018B1BAB178B13B4
:0E0AE0000A30C5004F21AB1B8B17412C630061
:04400E00E22FFF3F5F
:00000001FF
;PIC16F887
;CRC=ECDA  CREATED="15-Nov-23 11:39"
