:1000000000308A0018280000213084008313000883
:10001000031917280630F800F701F70B0D28F80B25
:100020000C287B30F700F70B1328800B0A280800F8
:1000300003081F398300831603170908C039890094
:1000400003131F129F1200300317880083128701C9
:10005000880189018313FC30831603138600950001
:1000600081130610831206108316861083128610E1
:10007000831606178312061B53280A30A10004209A
:10008000831606178312061B52288316061783123F
:10009000061B4D2886184C2845288316061001306B
:1000A000831286066C28831686178312861B6C289B
:1000B0000530A1000420831686178312861B6C2846
:1000C000831686178312861F6028061C6C288316E9
:0C00D00086100230831286063828630078
:04400E00E22FFF3F5F
:00000001FF
;PIC16F887
;CRC=2A39  CREATED="25-Nov-23 10:55"
